:020000040000FA
:0600000050EF0EF01200AB
:020006001200E6
:06000800B4EF01F012004C
:02000E00C586A5
:08001000C7A0FED7C950120081
:0600180049EF02F01200A6
:02001E000100DF
:0C002000181D000000010000AB000000F3
:04002C000A0EE66E64
:100030005EEC0EF0E5521200E10EE66E40EC0EF0C2
:10004000E55212004B0EE66E40EC0EF0E552120047
:10005000D9CFE6FFE1CFD9FF0F0E8316F00E951230
:100060009694969096928D948D908D92E5DF0F0EDA
:1000700095168316838A8D82D9DF8D92E3DF0F0E6A
:100080008316838A8D82D2DF8D92DCDF0F0E83167A
:10009000838A8D82CBDF8D92F00E951257D800099E
:1000A00001E0FCD7FE0EDBCFE6FF2DD8E5524ED89F
:1000B000000901E0FCD7080EE66E25D8E55246D8C7
:1000C000000901E0FCD70F0EE66E1DD8E5523ED8C0
:1000D000000901E0FCD7010EE66E15D8E55236D8CE
:1000E000000901E0FCD7130EE66E0DD8E5522ED8BC
:1000F000000901E0FCD7E66AC9D8E55200D0E55214
:10010000E7CFD9FF1200D9CFE6FFE1CFD9FF0F0E1D
:1001100095168316FE0EDB50F00B83128D948D9096
:1001200085DF8D8283DF8D920F0E8316FE0EDB3806
:10013000F00BF00B83127ADF8D8278DF8D92F00E58
:10014000951200D0E552E7CFD9FF12008D848D9033
:100150006DDF8D826BDF83AE09D08D9267DF8D827C
:1001600065DF8D928D94010E09D008D08D925EDFEF
:100170008D825CDF8D928D94000E00D01200D9CF5D
:10018000E6FFE1CFD9FFFD0EDBCFE9FFFE0EDBCFAF
:10019000EAFFEF5014E0DADF000901E0FCD7FD0EC2
:1001A000DBCFE9FFFE0EDBCFEAFFEF50E66E92D821
:1001B000E552FD0EDB2AFE0E01E3DB2AE4D700D078
:1001C000E552E7CFD9FF1200D9CFE6FFE1CFD9FF43
:1001D000E6528D848D902ADF8D8228DFF00E831405
:1001E000DF6E8D9223DF8D8221DF83380F0B0F0BA3
:1001F000DF128D928D947F0EDF1400D0E552E55210
:10020000E7CFD9FF1200D9CFE6FFE1CFD9FFE65201
:100210008D848D800BDF8D8209DFF00E8314DF6EFD
:100220008D9204DF8D8202DF83380F0B0F0BDF12FC
:100230008D928D908D94DF5000D0E552E552E7CF3E
:10024000D9FF1200D9CFE6FFE1CFD9FF0F0E9516E7
:100250008316FE0EDB504009F00B83128D948D90B7
:10026000E5DE8D82E3DE8D920F0E8316FE0EDB3807
:10027000F00BF00B8312DADE8D82D8DE8D92F00E59
:10028000951200D0E552E7CFD9FF1200D9CFE6FF93
:10029000E1CFD9FF0F0E95168316FE0EDB508009B5
:1002A000F00B83128D948D90C1DE8D82BFDE8D9216
:1002B0000F0E8316FE0EDB38F00BF00B8312B6DE4A
:1002C0008D82B4DE8D92F00E951200D0E552E7CF0C
:1002D000D9FF1200D9CFE6FFE1CFD9FF0F0E951657
:1002E0008316FE0EDB50F00B83128D808D949EDE04
:1002F0008D829CDE8D920F0E8316FE0EDB38F00B86
:10030000F00B831293DE8D8291DE8D92F00E9512AA
:1003100000D0E552E7CFD9FF1200D9CFE6FFE1CFF9
:10032000D9FFFD0EDBCFF6FFFE0EDBCFF7FF080097
:10033000F55015E00BDF000901E0FCD7FD0EDBCF27
:10034000F6FFFE0EDBCFF7FF0800F550E66EC2DFCA
:10035000E552FD0EDB2AFE0E01E3DB2AE2D700D0D8
:10036000E552E7CFD9FF1200DACFE4FFE2CFDAFFA0
:10037000E9CFE4FFEACFE4FFF6CFE4FFF7CFE4FFF5
:10038000F5CFE4FFF3CFE4FFF4CFE4FFFACFE4FFCF
:1003900000EE00F0100EE80403E3EECFE4FFFBD71D
:1003A00000EE10F0040EE80403E3EECFE4FFFBD709
:1003B000E652BE0E146E170E156E166A14C0E6FFD6
:1003C00015C0E6FF16C0E6FF47EC0DF0E552E5521A
:1003D000E5529EAAFED79EAA37D09DEC0DF00101F2
:1003E000B16FB151330A1DE0010A07E0030A01E0D1
:1003F0002BD074DAACA2FED727D0B40E146E170E31
:10040000156E166A14C0E6FF15C0E6FF16C0E6FFBB
:1004100047EC0DF0E552E552E552ACA2FED72BDBDE
:1004200013D0AC0E146E170E156E166A14C0E6FFCC
:1004300015C0E6FF16C0E6FF47EC0DF0E552E552A9
:10044000E552ACA2FED700D0F092E55200EE13F0D8
:10045000040EE80403E3E5CFEDFFFBD700EE0FF059
:10046000100EE80403E3E5CFEDFFFBD7E5CFFAFF7D
:10047000E5CFF4FFE5CFF3FFE5CFF5FFE5CFF7FFDD
:10048000E5CFF6FFE5CFEAFFE5CFE9FFE5CFDAFFFD
:100490001100D8CFE4FFE0CFE4FFE46EDACFE4FF51
:1004A000E2CFDAFFE9CFE4FFEACFE4FFF6CFE4FFE3
:1004B000F7CFE4FFF5CFE4FFF3CFE4FFF4CFE4FFA1
:1004C000FACFE4FF00EE00F0100EE80403E3EECFF5
:1004D000E4FFFBD700EE10F0040EE80403E3EECFD8
:1004E000E4FFFBD7E6520101A92B000EAA233C0E24
:1004F000A91901E1AA510EE1A96BAA6B807AD3EC8C
:1005000007F0140EE66E12EC0EF0E55293929298FC
:1005100041EC09F0670ED76E6A0ED66EF294E55282
:1005200000EE13F0040EE80403E3E5CFEDFFFBD784
:1005300000EE0FF0100EE80403E3E5CFEDFFFBD76C
:10054000E5CFFAFFE5CFF4FFE5CFF3FFE5CFF5FF09
:10055000E5CFF7FFE5CFF6FFE5CFEAFFE5CFE9FF0F
:10056000E5CFDAFFE550E5CFE0FFE5CFD8FF10009B
:10057000938693909392929A808A956A966A2B0EAC
:10058000E66E66DDE552010EE66EBDDDE5520A0E51
:10059000E66E12EC0EF0E552F294F28AF194938436
:1005A000F19EF092F088F08EF198D08EF28CF28E5F
:1005B000960ED56E670ED76E6A0ED66E948C948E9C
:1005C000B896AC98AC94810EAF6EAB8EAB9CAC8AF7
:1005D000AB8894809392929880988192D0EC09F0A5
:1005E000FFEC09F00101150EAB6F050EAC6F190E93
:1005F000AD6FAE6FAF6BB06B97EC09F00E0EE66EA1
:10060000040EE66EAF0EE66EA9EC0CF0E552E55274
:10061000E5520A0EE66E5EEC0EF0E5528AEC0EF044
:1006200080EC0EF0000901E0FBD769EC0EF0F3CF8F
:10063000BEF1F4CFBFF185EC0EF0BEC106F0BFC134
:1006400007F0086A096A07AE02D008680968880ED0
:100650000B6E130E0C6E0D6A0E6A71EC0CF002C07C
:1006600006F003C007F004C008F005C009F00B68ED
:10067000030E0C6E0D6A0E6AE0EC0CF006C0C0F1C1
:1006800007C0C1F108C0C2F1C0C110F0C1C111F072
:10069000C2C112F0E80E0C6E030E0D6E0E6A10C091
:1006A00007F011C008F012C009F0DAEC0DF007C035
:1006B00010F008C011F009C012F0300E1026000E24
:1006C0001122122210C001F1E80E0C6E030E0D6E05
:1006D0000E6AC0C107F0C1C108F0C2C109F0DAEC6E
:1006E0000DF003C0C0F104C0C1F105C0C2F1C0C12A
:1006F00010F0C1C111F0C2C112F0640E0C6E0D6A8F
:100700000E6A10C007F011C008F012C009F0DAEC50
:100710000DF007C010F008C011F009C012F0300E43
:100720001026000E1122122210C002F1640E0C6E6F
:100730000D6A0E6AC0C107F0C1C108F0C2C109F05C
:10074000DAEC0DF003C0C0F104C0C1F105C0C2F184
:10075000C0C110F0C1C111F0C2C112F00A0E0C6E7E
:100760000D6A0E6A10C007F011C008F012C009F03F
:10077000DAEC0DF007C010F008C011F009C012F05B
:10078000300E1026000E1122122210C003F10101BA
:100790002E0E046FC0C110F0C1C111F0C2C112F021
:1007A0000A0E0C6E0D6A0E6A10C007F011C008F038
:1007B00012C009F0DAEC0DF003C010F004C011F023
:1007C00005C012F0300E1026000E1122122210C0A9
:1007D00005F1800EE66E97DCE5520C0EE66E93DCBA
:1007E000E552010EE66E010EE66EC9DCE552E552F9
:1007F000850EE66E88DCE552A90EE66E170EE66EF3
:100800008CDDE552E55288EC0EF09298939241EC23
:1008100009F00101AD51B26FB36BAC51B46FB56B60
:10082000AB51B66FB76BAE51B86FB96BAF51BA6F12
:10083000BB6BB051BC6FBD6B880EE66E64DCE552DD
:10084000ADC1E6FF3BEC0AF0E5528A0EE66E5BDCDA
:10085000E5522F0EE66E3EDDE552010EE66E12EC1D
:100860000EF0E5528B0EE66E4EDCE552ACC1E6FFB3
:100870003BEC0AF0E5528D0EE66E45DCE5522F0E9C
:10088000E66E28DDE552010EE66E12EC0EF0E55242
:100890008E0EE66E38DCE552ABC1E6FF3BEC0AF0AB
:1008A000E552C00EE66E2FDCE552AEC1E6FF3BEC32
:1008B0000AF0E5523A0EE66E0DDDE552AFC1E6FFF5
:1008C0003BEC0AF0E5523A0EE66E04DDE552B0C1AB
:1008D000E6FF3BEC0AF0E55291D612007A0E106E5C
:1008E000170E116E126A10C0E6FF11C0E6FF12C0AB
:1008F000E6FF47EC0DF0E552E552E552640E106E4E
:10090000170E116E126A10C0E6FF11C0E6FF12C08A
:10091000E6FF47EC0DF0E552E552E5520101CF6BE1
:10092000D06B0C0ED0AF02D0D89003D0CF5D000EAC
:10093000D0594DE29EAAFED79DEC0DF0E66EC30E97
:100940000101CF25E96E010ED021EA6EE552E75094
:10095000EF6EC30ECF25E96E010ED021EA6EEF5087
:10096000E66E29EC0EF0E5520101CF2B000ED023EC
:100970009EAAFED79DEC0DF0E66EC30E0101CF25B9
:10098000E96E010ED021EA6EE552E750EF6EC30E1C
:10099000CF25E96E010ED021EA6EEF50E66E29EC0C
:1009A0000EF0E552620E106E170E116E126A10C034
:1009B000E6FF11C0E6FF12C0E6FF47EC0DF0E5527E
:1009C000E552E5520101CF2B000ED023AAD79EAAF3
:1009D000FED79DEC0DF00101D16FD1C1E6FF29ECEE
:1009E0000EF0E5525F0E106E170E116E126A10C0F7
:1009F000E6FF11C0E6FF12C0E6FF47EC0DF0E5523E
:100A0000E552E552300E0101C45D106E300EC35D3B
:100A1000100DF3501010AD6F300EC65D106E300E1D
:100A2000C55D100DF3501010AC6F300EC85D106E28
:100A3000300EC75D100DF3501010AB6F300ECA5D55
:100A4000106E300EC95D100DF3501010AE6F300EE9
:100A5000CC5D106E300ECB5D100DF3501010AF6FEB
:100A6000300ECE5D106E300ECD5D100DF3501010B7
:100A7000B06F97EF09F0D9CFE6FFE1CFD9FF070EAE
:100A8000E126010EDE6EDD6A020EDB6A030EDB6A12
:100A90000101A76BA86BE66A080EE66EF7EC0DF095
:100AA000E552E5520B0EC86E010EE66E12EC0EF02A
:100AB000E552DECF10F0DDCF11F001010A5111181F
:100AC000E8AE02D0113404D01050095D11500A591B
:100AD00001E2C6D1800EE66E83EC00F0E552DECF77
:100AE00010F0DDCF11F0D890115004E60F0E105C1D
:100AF000000E115806E2A00EF36E040EF3CFDBFFDA
:100B000011D0DECF10F0DDCF11F0D890115004E6F7
:100B10000F0E105C000E115805E3A20EF36E040ECA
:100B2000F3CFDBFF200EE66E29EC0EF0E552ACA20F
:100B3000FED75C0E106E170E116E126A10C0E6FF23
:100B400011C0E6FF12C0E6FF47EC0DF0E552E5529A
:100B5000E552ACA2FED7050EDB6A060EDB6A050E77
:100B6000DBCF10F0060EDBCF11F0D890115004E669
:100B7000050E105C000E11581DE2050EDB50010140
:100B8000A7250F01E96E060EDB500101A8210F0118
:100B9000EA6E100EE926010EEA22EF50E66E29EC0D
:100BA0000EF0E552ACA2FED7050EDB2A060E01E3DD
:100BB000DB2AD5D7A90E106E170E116E126A10C05F
:100BC000E6FF11C0E6FF12C0E6FF47EC0DF0E5526C
:100BD000E552E552ACA2FED7050E0101A727000E93
:100BE000A823200EE66E29EC0EF0E552ACA2FED74B
:100BF000020EDBCFE6FF030EDBCFE6FF040EDBCFFA
:100C0000E6FF52D9E552E552E552020EDB2A030E09
:100C100001E3DB2A020EDBCFE6FF030EDBCFE6FFAC
:100C2000040EDBCFE6FF40D9E552E552E552020E55
:100C3000DB2A030E01E3DB2A200EE66E29EC0EF020
:100C4000E552ACA2FED7020EDBCFE6FF030EDBCFF0
:100C5000E6FF040EDBCFE6FF27D9E552E552E55269
:100C6000020EDB2A030E01E3DB2A020EDBCFE6FFD6
:100C7000030EDBCFE6FF040EDBCFE6FF15D9E5520E
:100C8000E552E552020EDB2A030E01E3DB2A2F0EAA
:100C9000E66E29EC0EF0E552ACA2FED7020EDBCFD9
:100CA000E6FF030EDBCFE6FF040EDBCFE6FFFCD84A
:100CB000E552E552E552020EDB2A030E01E3DB2A80
:100CC000020EDBCFE6FF030EDBCFE6FF040EDBCF29
:100CD000E6FFEAD8E552E552E552020EDB2A030EA2
:100CE00001E3DB2A2F0EE66E29EC0EF0E552ACA2F2
:100CF000FED7020EDBCFE6FF030EDBCFE6FF040ECE
:100D0000DBCFE6FFD1D8E552E552E552020EDB2AF1
:100D1000030E01E3DB2A020EDBCFE6FF030EDBCF7F
:100D2000E6FF040EDBCFE6FFBFD8E552E552E55201
:100D3000020EDB2A030E01E3DB2A200EE66E29EC0D
:100D40000EF0E552ACA2FED7020EDBCFE6FF030E9B
:100D5000DBCFE6FF040EDBCFE6FFA6D8E552E55277
:100D6000E552020EDB2A030E01E3DB2A020EDBCF83
:100D7000E6FF030EDBCFE6FF040EDBCFE6FF94D8E1
:100D8000E552E552E552020EDB2A030E01E3DB2AAF
:100D90003A0EE66E29EC0EF0E552ACA2FED7020E3A
:100DA000DBCFE6FF030EDBCFE6FF040EDBCFE6FF73
:100DB0007BD8E552E552E552020EDB2A030E01E331
:100DC000DB2A020EDBCFE6FF030EDBCFE6FF040ECD
:100DD000DBCFE6FF69D8E552E552E552020EDB2A89
:100DE000030E01E3DB2A3A0EE66E29EC0EF0E55223
:100DF000ACA2FED7020EDBCFE6FF030EDBCFE6FF91
:100E0000040EDBCFE6FF50D8E552E552E552020E64
:100E1000DB2A030E01E3DB2A020EDBCFE6FF030E23
:100E2000DBCFE6FF040EDBCFE6FF3ED8E552E5520E
:100E3000E552020EDB2A030E01E3DB2ADF2A010E54
:100E400001E3DB2AD9CFE9FFDACFEAFF0F0EEE1874
:100E500001E1ED5004E1020EDB6A030EDB6A29D6E4
:100E6000096B0A6B076B086BA76BA86B5C0E106EA7
:100E7000170E116E126A10C0E6FF11C0E6FF12C015
:100E8000E6FF47EC0DF0E552E552E55288EC0EF036
:100E900093909392070EE15C02E2E16AE552E16E03
:100EA000E552E7CFD9FF1200D9CFE6FFE1CFD9FF56
:100EB000020EE66E0E0EE66E010EE66EFC0EDBCF47
:100EC000E6FFFE0EDBCFE6FF0AEC0BF0106E050E20
:100ED000E15E1050010EE66E12EC0EF0E5520EC10E
:100EE000E6FF29EC0EF0E552ACA2FED7E552E7CFC3
:100EF000D9FF1200D9CFE6FFE1CFD9FF060EE126D8
:100F0000D950030FE96EDACFEAFF300EEE6EEE6EC7
:100F1000EE6AFD0EDB50E76E020EE7CFDBFFFD0E43
:100F2000DB380F0BF36EFD0EF3CFDBFFDB50E76E0C
:100F3000010EE7CFDBFFDB500F0BDF6E300EDF243F
:100F4000E76E030EE7CFDBFF020EDB500F0BDF6E09
:100F5000300EDF24E76E040EE7CFDBFF010EE66EF6
:100F600012EC0EF0E552D950030FE66E000EDA20B7
:100F7000E66E07C1E6FFFE0EDBCFE6FFF3EC0BF0FB
:100F8000E552E552E552E552010EE66E12EC0EF026
:100F9000E552060EE15C02E2E16AE552E16EE552DD
:100FA000E7CFD9FF1200D9CFE6FFE1CFD9FFE65254
:100FB0000F0E01010AAF02D0D89003D0095D000ED8
:100FC0000A5903E2A00EDF6E02D0A20EDF6E59D9DD
:100FD000E66A080EE66EF7EC0DF0E552E5520B0EF0
:100FE000C86E010EE66E5EEC0EF0E5521E0E0101BB
:100FF0000AAF02D0D89003D0095D000E0A5901E370
:10100000C9D0010E0925096F000E0A210A6F100EC2
:10101000A725E96E010EA821EA6E01C1EFFF010EBE
:10102000EA6AA725E96EA851EA22100EE926010E08
:10103000EA2202C1EFFF020EEA6AA725E96EA85173
:10104000EA22100EE926010EEA2203C1EFFF040E88
:10105000EA6AA725E96EA851EA22100EE926010ED8
:10106000EA2205C1EFFF050EA727000EA8230B0EED
:10107000E66E010EE66EBEC1E6FFBFC1E6FF70EC94
:101080000AF0E552E552E552E552010EE66E12EC29
:101090000EF0E5520B0EE66E010EE66E07C1E6FF9E
:1010A000DFCFE6FFF3EC0BF0E552E552E552E552F7
:1010B000010EE66E12EC0EF0E552020E010107275A
:1010C000000E0823B2C1E6FFDFCFE6FF13DFE552D3
:1010D000E552020E01010727000E0823010EE66EFD
:1010E00012EC0EF0E552B4C1E6FFDFCFE6FF02DFFF
:1010F000E552E552020E01010727000E0823010EFA
:10110000E66E12EC0EF0E552B6C1E6FFDFCFE6FF69
:10111000F1DEE552E552020E01010727000E082319
:10112000010EE66E12EC0EF0E552B8C1E6FFDFCF1D
:10113000E6FFE0DEE552E552020E01010727000E50
:101140000823010EE66E12EC0EF0E552BAC1E6FF7E
:10115000DFCFE6FFCFDEE552E552020E01010727A1
:10116000000E0823010EE66E12EC0EF0E552BCC133
:10117000E6FFDFCFE6FFBEDEE552E552020E0101DB
:101180000727000E08230F0E091901E10A5102E199
:10119000076B086B010EE66E12EC0EF0E55288EC60
:1011A0000EF093909392E552E552E7CFD9FF1200EB
:1011B000D9CFE6FFE1CFD9FFE6529390DF6A080E60
:1011C000DF5C18E28192FE0EDBA002D0818001D0AC
:1011D0008190DB407F0BE76EFE0EE7CFDBFF020E58
:1011E000E66E7FD8E5528182020EE66E7AD8E5522D
:1011F000DF2AE5D7E552E552E7CFD9FF1200D9CF74
:10120000E6FFE1CFD9FF030EE126010EDB6AF36EA4
:10121000020EF3CFDBFF9380DF6A080EDF5C22E271
:101220008192010EE66E5DD8E55281A00BD0020ED0
:10123000DBCFE6FF010EDB50E552E710E76E010E53
:10124000E7CFDBFF020EDB50020D020EF3CFDBFF18
:10125000E66E47D8E5528182020EE66E42D8E5522C
:10126000DF2ADBD7010EDB50106E030EE15C03E2D8
:1012700000D0E16AE552E16E1050E552E7CFD9FFA8
:101280001200D9CFE6FFE1CFD9FFE65280888192E4
:10129000BF0EE66E8DDFE552B2DF0101B06FAFDF4A
:1012A0000101AF6FACDF0101AE6FA9DF0101AD6FCE
:1012B000A6DF0101AC6FA3DFDF6EA1DF0101AB6F21
:1012C0009EDFDF6E8192020EE66E0BD8E5528098AB
:1012D0000A0EE66E06D8E552E552E552E7CFD9FF91
:1012E0001200D9CFE6FFE1CFD9FF020EE126DE6A78
:1012F000DD6ADE6ADD6ADECF10F0DDCF11F0FE0EB2
:10130000DB50126E136A1050125C1150135805E333
:10131000DF2A010E01E3DB2AEED7020EE15C02E2D6
:10132000E16AE552E16EE552E7CFD9FF120038D805
:101330008088040EE66ED5DFE5527F0E0101B01500
:10134000B06FBE0EE66E34DFE552B0C1E6FF30DFAF
:10135000E552AFC1E6FF2CDFE552AEC1E6FF28DF64
:10136000E552ADC1E6FF24DFE552ACC1E6FF20DF68
:10137000E552010EE66E1CDFE552ABC1E6FF18DF59
:10138000E552E66A15DFE5528192040EE66EA9DFAA
:10139000E5528098040EE66EA4DFE552E7EF09F00F
:1013A0008088040EE66E9DDFE5528E0EE66E00DF4D
:1013B000E552E66AFDDEE5528192040EE66E91DFAB
:1013C000E5528098040EE66E8CDFE55212008088AC
:1013D000040EE66E86DFE5528E0EE66EE9DEE5521D
:1013E000800EE66EE5DEE5528192040EE66E79DF50
:1013F000E5528098040EE66E74DFE5521200D9CFF4
:10140000E6FFE1CFD9FF020EE1268088040EE66EEA
:1014100068DFE552800EE66ECBDEE552E66AC8DE96
:10142000E5528192040EE66E5CDFE5528098040E70
:10143000E66E57DFE552DE6ADD6AD9CFE9FFDACF23
:10144000EAFF050ED880EE54000EED540AE3FA0EC2
:10145000E66E12EC0EF0E552DF2A010E01E3DB2A04
:10146000ECD7020EE15C02E2E16AE552E16EE55280
:10147000E7CFD9FF1200D9CFE6FFE1CFD9FF030EA6
:10148000E126FE0EDB50E76E020EE7CFDBFFFE0E1D
:10149000DB380F0BF36EFE0EF3CFDBFFDB50E76E96
:1014A000010EE7CFDBFFDB500F0BDF6E300EDF24CA
:1014B000E66E6AEC01F0E552020EDB500F0BDF6EB8
:1014C000300EDF24E66E6AEC01F0E552030EE15CBB
:1014D00002E2E16AE552E16EE552E7CFD9FF120080
:1014E000D9CFE6FFDACFE6FFFA0EE3CFD9FFFB0E46
:1014F000E3CFDAFFFD0EE35209E72D0EDE6EFC0EA0
:10150000E31EE32AFD0ED8B4E306E31EE652E652DC
:10151000E652FD0EE124E76EFF0EE220E46EE65295
:10152000F70EE3CFE6FFF70EE3CFE6FFE0EC0AF0BD
:10153000F90EE124E96EFF0EE220EA6ED0EC0AF02B
:101540000AE1CDEC0AF009E1D0EC0AF008E1CDECBB
:101550000AF007E108D0DBEC0AF0D6EC0AF0DBEC8D
:101560000AF0D6EC0AF0DBEC0AF0DE6AF90EE126AE
:10157000FF0EE222FF0EE3CFDAFFE552FF0EE3CFCC
:10158000D9FFE552FC0EE124E96EFF0EE220EA6E7F
:10159000EECFF3FFEFCFF4FF1200EF380F0B120086
:1015A000EF500F0B02E1EE52D8841200EF380F0B10
:1015B000300FDE6E1200EE500F0B300FDE6E120099
:1015C000FC0EE3CFE9FFFD0EE3CFEAFF100EE66E5F
:1015D000EE6AEE6AEF6AD890FD0EE336FE0EE33651
:1015E000ED36ED36EF36FF0EE30609E001EC0BF0C9
:1015F000EE5201EC0BF0EE5201EC0BF0EDD7E56E84
:101600001200030EEF24E8B6EF6E300EEF24E8BEB2
:04161000EF6E000C6D
:0C161400D9CFE6FFDACFE6FFE1CFD9FF27
:10162000E2CFDAFF72EC0EF0C580C5B0FED7A1B6EE
:1016300033D0FD0E3DD812E1C5BC30D0FC0E38D8F9
:101640000DE1C5BC2BD0C582C5B2FED7FD0EDB288F
:10165000E66EBCEC0DF0E552000903E0C584FD0E1A
:1016600021D0C5BC1BD0F90EDBCFE6FFFA0EDBCFD5
:10167000E6FFFB0EDBCFE6FF14EC0DF0E552E55282
:10168000E552000909E1C58AC588C5B8FED7C584F9
:10169000C5B4FED7A1A605D0FF0E04D0C584FE0EAA
:1016A00001D0000EE552E5CFDAFFE7CFD9FF1200F7
:0E16B000DBCFE6FFBCEC0DF0E55200091200A6
:0216BE001E0EFE
:1016C000F66E000EF76E000EF86E01010900F5507F
:1016D000D86F0900F550D96F03E1D86701D03DD02C
:1016E0000900F550D36F0900F550D46F0900F5508B
:1016F000D56F09000900F550E96E0900F550EA6E52
:10170000090009000900F550D66F0900F550D76FA0
:1017100009000900F6CFDAF1F7CFDBF1F8CFDCF101
:10172000D3C1F6FFD4C1F7FFD5C1F8FF0101D653ED
:1017300002E1D75307E00900F550EE6ED607F8E254
:10174000D707F9D7DAC1F6FFDBC1F7FFDCC1F8FF35
:0C1750000101D807000ED95BBFD71200C2
:04175C000A0D000D65
:101760000A002C0044442C4D4D2C41412C48482C5F
:101770004D4D2C53532C420D0A00202020496E66FB
:101780006F726D65206120646174612C2061206836
:101790006F7261206520612062617365206465203D
:1017A00074656D706F3A0D0A006F4300202020535E
:1017B00061697200202020454550524F4D000D0AAE
:1017C000312D436F6E66696775726163616F200DBD
:1017D0000A322D454550524F4D200D0A332D53618D
:0517E00069720D0A0012
:0A17E600D9CFE6FFDACFE6FFE1CF2E
:1017F000D9FFE2CFDAFF72EC0EF0C580C5B0FED79C
:10180000A1B624D0FD0E2BD805E1C5BC17D0FC0E27
:1018100026D803E0C584FD0E1CD0C5BC0FD0FA0E3F
:10182000DBCFE6FFFB0EDBCFE6FF36EC0CF0E5523C
:10183000E552000906E0C584FC0E0BD0C584FE0EFF
:1018400008D0C584C5B4FED7A1A602D0FF0E01D032
:10185000000EE552E5CFDAFFE7CFD9FF1200DBCF6C
:0C186000E6FFBCEC0DF0E55200091200A0
:04186C00D9CFE6FFEB
:10187000DACFE6FFE1CFD9FFE2CFDAFFE65229D88F
:1018800020E0C6A60AD025D8E66EBCEC0DF0E552E5
:10189000DF6EDF5010E0DF5015D09E961AD8C96E6B
:1018A000C6889EA6FED7C750040B05E1C750010BA2
:1018B00002E1FE0E07D0FC0EDB2AFD0EE0E3DB2A80
:1018C000DED7000EE552E552E5CFDAFFE7CFD9FFCC
:1018D0001200FC0EDBCFE9FFFD0EDBCFEAFFEF507D
:0218E0001200F4
:0E18E20006500B02F3CF02F0F4CF03F00C021D
:1018F000F3500326000EF420046E06500D02F35040
:101900000426000EF420056E06500E02F350052644
:1019100007500B02F3500326F4500422000E052258
:1019200007500C02F3500426F450052207500D0214
:10193000F350052608500B02F3500426F4500522FC
:1019400008500C02F350052609500B02F3500526EF
:02195000120083
:0E195200D9CFE6FFDACFE6FFE1CFD9FFE2CF33
:10196000DAFFC26AC06AFC0EDB407F0B3C0BC26E22
:10197000FB0EDBCFE6FFFC0EDB38F00B300BE55245
:10198000E710C16EFD0EDB50040DF350380B116EE5
:10199000FD0EDB380F0B070B106EFD0EDB50800BBE
:1019A00010101110C06EFC0EDBAE03D09E9C9D8CFF
:1019B000F28CC280E552E5CFDAFFE7CFD9FF120003
:1019C000006AE86A0EAEEDEF0CF00B6C0C1E0D1EFB
:1019D0000E1E0C220D220E22001E09AEF8EF0CF096
:1019E000066C071E081E091E072208220922001E77
:1019F00079EC0DF009BE0FEF0DF000AE000C066C97
:101A0000071E081E091EE86A072208220922026C26
:101A1000031E041E051E032204220522000C00BE24
:081A2000FFEF0CF00188FF0C40
:081A2800D9CFE6FFDACFE6FF9B
:101A3000E1CFD9FFE2CFDAFFFB0EDBCFF3FFDB060E
:101A4000F35000091DE007EC00F0E66EFC0EDBCF62
:101A5000E9FFDB2AFD0EDBCFEAFF01E3DB2AE552DB
:101A6000E750EF6EC5B6FED7A1A602D0FF0E09D093
:101A7000FB0EDB50E1E0C59AC588C5A8DDD7FDD7D0
:0E1A8000000EE552E5CFDAFFE7CFD9FF1200E6
:021A8E00D9CFAE
:101A9000E6FFDACFE6FFE1CFD9FFE2CFDAFFACA273
:101AA000FED7FB0EDBCFF6FFFC0EDBCFF7FFFD0E04
:101AB000DBCFF8FF0800F550E66E29EC0EF0E5529A
:101AC000D950FB0FE96EFF0EDA20EA6EEFCFF6FF7A
:101AD000EE2AEFCFF7FF000EEE22EFCFF8FFEE2257
:101AE0000800F550DCE1E552E5CFDAFFE7CFD9FF9A
:021AF0001200E2
:0E1AF200056A046A036A026A200EE76ED89045
:101B000006360736083609360236033604360536F9
:101B10000B50025C0C5003580D5004580E500558E1
:101B200009E30B50025E0C50035A0D50045A0E503C
:0A1B3000055A062AE72EE4D712003A
:061B3A00D9CFE6FFDACF6F
:101B4000E6FFE1CFD9FFE2CFDAFFE652F20E010164
:101B5000DD17ABAC03D0DD91ABB0DD81ABB4DD857F
:101B6000ABB2DD87AE50DF6EDF50E552E552E5CF18
:081B7000DAFFE7CFD9FF1200F4
:081B7800D9CFE6FFDACFE6FF4A
:101B8000E1CFD9FFE2CFDAFFFD0EDB50C96EC6AE62
:101B900002D0FF0E09D0C7B0FED772EC0EF0C5AC74
:101BA00002D0FE0E01D0000EE552E5CFDAFFE7CFFE
:041BB000D9FF120047
:0C1BB400056A046A036A180EE76ED890F8
:101BC0000736083609360336043605360C50035CF2
:101BD0000D5004580E50055807E30C50035E0D508D
:0E1BE000045A0E50055A072AE72EEAD71200C3
:021BEE00D9CF4D
:101BF000E6FFDACFE6FFE1CFD9FFE2CFDAFF3F0E13
:101C0000C716C66AC56AFD0EDB50C612FC0EDB5055
:101C1000C71293829380C68AE552E5CFDAFFE7CFF9
:041C2000D9FF1200D6
:0C1C2400FF0EE350186EEF0E01D0F30E1F
:101C3000E76EE72E19EF0EF00C0E176EE76AE72E2F
:101C40001FEF0EF0172E1EEF0EF0182E17EF0EF0EE
:021C5000120080
:0E1C5200D9CFE6FFDACFE6FFE1CFD9FFE2CF30
:101C6000DAFFACAC04D0AC900101DDB3AC80FD0E6A
:101C7000DB50AD6EE552E5CFDAFFE7CFD9FF1200BA
:101C8000FF0EE350186E480E01D04C0EE76EE72EA3
:101C9000FED7E76AE72EFED7182EF7D7000012000E
:101CA00013EE00F023EE00F0F86A019C5FEC0BF0FD
:0C1CB00003EC00F0B8EC02F0FBD71200CF
:041CBC00FF0EE350E4
:101CC000E84E1200000000D000D000D0E82EFAD775
:021CD000120000
:0E1CD200C450136E126AC3501210F36E13C08A
:041CE000F4FF1200FB
:0C1CE4001F0EC514FDE1C750040BFAE10F
:021CF0001200E0
:0E1CF20000EE00F00F0EEE6AEA62FDD712005F
:0A1D0000C250020B01E0010E1200B8
:061D0A00C2909D9C120036
:041D1000C69A12005D
:041D1400C282120075
:081D1800003030302C300000D7
:101D200000000030300030003030302C30303030A7
:101D30002C303030302C303030302C303030302CB3
:101D4000303030302C303030302C303030302C309F
:101D50003030302C303030302C303030302C30308F
:101D600030302C303030302C303030302C3030307F
:101D7000302C303030302C303030302C303030306F
:101D80002C303030302C303030302C303030302C63
:101D9000303030302C303030302C303030302C304F
:101DA0003030302C303030302C303030302C30303F
:101DB00030302C303030302C303030302C3000008F
:031DC00000000020
:020000040030CA
:0100000004FB
:010001000CF2
:010003001EDE
:010005008179
:0100060001F8
:00000001FF
